{
  "address": "0xdB3BC06d644E4d71731664D3F4bbe1C3c4726bcf",
  "abi": [
    {
      "inputs": [
        {
          "internalType": "string",
          "name": "_name",
          "type": "string"
        },
        {
          "internalType": "address",
          "name": "_pool",
          "type": "address"
        },
        {
          "internalType": "uint256",
          "name": "_swapGasEstimate",
          "type": "uint256"
        }
      ],
      "stateMutability": "nonpayable",
      "type": "constructor"
    },
    {
      "anonymous": false,
      "inputs": [
        {
          "indexed": true,
          "internalType": "address",
          "name": "previousOwner",
          "type": "address"
        },
        {
          "indexed": true,
          "internalType": "address",
          "name": "newOwner",
          "type": "address"
        }
      ],
      "name": "OwnershipTransferred",
      "type": "event"
    },
    {
      "anonymous": false,
      "inputs": [
        {
          "indexed": true,
          "internalType": "address",
          "name": "_asset",
          "type": "address"
        },
        {
          "indexed": false,
          "internalType": "uint256",
          "name": "amount",
          "type": "uint256"
        }
      ],
      "name": "Recovered",
      "type": "event"
    },
    {
      "anonymous": false,
      "inputs": [
        {
          "indexed": true,
          "internalType": "address",
          "name": "_adapter",
          "type": "address"
        },
        {
          "indexed": false,
          "internalType": "uint256",
          "name": "_newEstimate",
          "type": "uint256"
        }
      ],
      "name": "UpdatedGasEstimate",
      "type": "event"
    },
    {
      "anonymous": false,
      "inputs": [
        {
          "indexed": true,
          "internalType": "address",
          "name": "_tokenFrom",
          "type": "address"
        },
        {
          "indexed": true,
          "internalType": "address",
          "name": "_tokenTo",
          "type": "address"
        },
        {
          "indexed": false,
          "internalType": "uint256",
          "name": "_amountIn",
          "type": "uint256"
        },
        {
          "indexed": false,
          "internalType": "uint256",
          "name": "_amountOut",
          "type": "uint256"
        }
      ],
      "name": "YakAdapterSwap",
      "type": "event"
    },
    {
      "inputs": [],
      "name": "indentifier",
      "outputs": [
        {
          "internalType": "bytes32",
          "name": "",
          "type": "bytes32"
        }
      ],
      "stateMutability": "view",
      "type": "function"
    },
    {
      "inputs": [
        {
          "internalType": "address",
          "name": "",
          "type": "address"
        }
      ],
      "name": "isPoolToken",
      "outputs": [
        {
          "internalType": "bool",
          "name": "",
          "type": "bool"
        }
      ],
      "stateMutability": "view",
      "type": "function"
    },
    {
      "inputs": [],
      "name": "name",
      "outputs": [
        {
          "internalType": "string",
          "name": "",
          "type": "string"
        }
      ],
      "stateMutability": "view",
      "type": "function"
    },
    {
      "inputs": [],
      "name": "owner",
      "outputs": [
        {
          "internalType": "address",
          "name": "",
          "type": "address"
        }
      ],
      "stateMutability": "view",
      "type": "function"
    },
    {
      "inputs": [],
      "name": "pool",
      "outputs": [
        {
          "internalType": "address",
          "name": "",
          "type": "address"
        }
      ],
      "stateMutability": "view",
      "type": "function"
    },
    {
      "inputs": [
        {
          "internalType": "uint256",
          "name": "_amountIn",
          "type": "uint256"
        },
        {
          "internalType": "address",
          "name": "_tokenIn",
          "type": "address"
        },
        {
          "internalType": "address",
          "name": "_tokenOut",
          "type": "address"
        }
      ],
      "name": "query",
      "outputs": [
        {
          "internalType": "uint256",
          "name": "",
          "type": "uint256"
        }
      ],
      "stateMutability": "view",
      "type": "function"
    },
    {
      "inputs": [
        {
          "internalType": "uint256",
          "name": "_amount",
          "type": "uint256"
        }
      ],
      "name": "recoverAVAX",
      "outputs": [],
      "stateMutability": "nonpayable",
      "type": "function"
    },
    {
      "inputs": [
        {
          "internalType": "address",
          "name": "_tokenAddress",
          "type": "address"
        },
        {
          "internalType": "uint256",
          "name": "_tokenAmount",
          "type": "uint256"
        }
      ],
      "name": "recoverERC20",
      "outputs": [],
      "stateMutability": "nonpayable",
      "type": "function"
    },
    {
      "inputs": [],
      "name": "renounceOwnership",
      "outputs": [],
      "stateMutability": "nonpayable",
      "type": "function"
    },
    {
      "inputs": [
        {
          "internalType": "address",
          "name": "_token",
          "type": "address"
        },
        {
          "internalType": "address",
          "name": "_spender",
          "type": "address"
        }
      ],
      "name": "revokeAllowance",
      "outputs": [],
      "stateMutability": "nonpayable",
      "type": "function"
    },
    {
      "inputs": [],
      "name": "setAllowances",
      "outputs": [],
      "stateMutability": "nonpayable",
      "type": "function"
    },
    {
      "inputs": [
        {
          "internalType": "uint256",
          "name": "_estimate",
          "type": "uint256"
        }
      ],
      "name": "setSwapGasEstimate",
      "outputs": [],
      "stateMutability": "nonpayable",
      "type": "function"
    },
    {
      "inputs": [
        {
          "internalType": "uint256",
          "name": "_amountIn",
          "type": "uint256"
        },
        {
          "internalType": "uint256",
          "name": "_amountOut",
          "type": "uint256"
        },
        {
          "internalType": "address",
          "name": "_fromToken",
          "type": "address"
        },
        {
          "internalType": "address",
          "name": "_toToken",
          "type": "address"
        },
        {
          "internalType": "address",
          "name": "_to",
          "type": "address"
        }
      ],
      "name": "swap",
      "outputs": [],
      "stateMutability": "nonpayable",
      "type": "function"
    },
    {
      "inputs": [],
      "name": "swapGasEstimate",
      "outputs": [
        {
          "internalType": "uint256",
          "name": "",
          "type": "uint256"
        }
      ],
      "stateMutability": "view",
      "type": "function"
    },
    {
      "inputs": [
        {
          "internalType": "address",
          "name": "",
          "type": "address"
        }
      ],
      "name": "tokenIndex",
      "outputs": [
        {
          "internalType": "uint8",
          "name": "",
          "type": "uint8"
        }
      ],
      "stateMutability": "view",
      "type": "function"
    },
    {
      "inputs": [
        {
          "internalType": "address",
          "name": "newOwner",
          "type": "address"
        }
      ],
      "name": "transferOwnership",
      "outputs": [],
      "stateMutability": "nonpayable",
      "type": "function"
    },
    {
      "stateMutability": "payable",
      "type": "receive"
    }
  ],
  "transactionHash": "0x2e041c278bbd2de1e0c97e9014ae1b5e47698e39a842d0653eecbdd95de5b711",
  "args": [
    "AxialHerculesYakAdapterV0",
    "0xa0f6397FEBB03021F9BeF25134DE79835a24D76e",
    360000
  ],
  "solcInputHash": "394e227962a09ee73079d9b1f853e83e",
  "bytecode": "0x60806040523480156200001157600080fd5b506040516200172738038062001727833981810160405260608110156200003757600080fd5b81019080805160405193929190846401000000008211156200005857600080fd5b9083019060208201858111156200006e57600080fd5b82516401000000008111828201881017156200008957600080fd5b82525081516020918201929091019080838360005b83811015620000b85781810151838201526020016200009e565b50505050905090810190601f168015620000e65780820380516001836020036101000a031916815260200191505b506040908152602082015191015190925090506000620001056200019e565b600080546001600160a01b0319166001600160a01b0383169081178255604051929350917f8be0079c531659141344cd1fd0a4f28419497f9722a3daafe3b4186f6b6457e0908290a350600580546001600160a01b0319166001600160a01b03841617905582516200017f90600290602086019062000331565b506200018b81620001a2565b6200019562000259565b505050620003dd565b3390565b620001ac6200019e565b6001600160a01b0316620001bf62000322565b6001600160a01b0316146200021b576040805162461bcd60e51b815260206004820181905260248201527f4f776e61626c653a2043616c6c6572206973206e6f7420746865206f776e6572604482015290519081900360640190fd5b600181905560408051828152905130917ff43f23b7a28e6f8ce6843a21bd7b48bce778aa913b8c8cf459edf7d770e8d38a919081900360200190a250565b60005b6005546040805162415c3360e91b815260ff8416600482015290516001600160a01b03909216916382b8660091602480820192602092909190829003018186803b158015620002aa57600080fd5b505afa925050508015620002d157506040513d6020811015620002cc57600080fd5b505160015b620002dc576200031f565b6001600160a01b031660009081526003602090815260408083208054600160ff19918216811790925560049093529220805490911660ff8416179055016200025c565b50565b6000546001600160a01b031690565b828054600181600116156101000203166002900490600052602060002090601f016020900481019282620003695760008555620003b4565b82601f106200038457805160ff1916838001178555620003b4565b82800160010185558215620003b4579182015b82811115620003b457825182559160200191906001019062000397565b50620003c2929150620003c6565b5090565b5b80821115620003c25760008155600101620003c7565b61133a80620003ed6000396000f3fe6080604052600436106100f75760003560e01c806384a33e631161008a578063de260f3711610059578063de260f371461034c578063eab90da614610393578063ef99893a146103e4578063f2fde38b14610425576100fe565b806384a33e63146102bf5780638980f11f146102e95780638da5cb5b14610322578063dbd9a4d414610337576100fe565b80634ebb7916116100c65780634ebb79161461022e57806369cff80d1461025a578063715018a61461026f5780637ae2677314610284576100fe565b806306fdde03146101035780630fef1c061461018d57806316f0115b146101b4578063427f91a6146101e5576100fe565b366100fe57005b600080fd5b34801561010f57600080fd5b50610118610458565b6040805160208082528351818301528351919283929083019185019080838360005b8381101561015257818101518382015260200161013a565b50505050905090810190601f16801561017f5780820380516001836020036101000a031916815260200191505b509250505060405180910390f35b34801561019957600080fd5b506101a26104e3565b60408051918252519081900360200190f35b3480156101c057600080fd5b506101c9610507565b604080516001600160a01b039092168252519081900360200190f35b3480156101f157600080fd5b506102186004803603602081101561020857600080fd5b50356001600160a01b0316610516565b6040805160ff9092168252519081900360200190f35b34801561023a57600080fd5b506102586004803603602081101561025157600080fd5b503561052b565b005b34801561026657600080fd5b506101a261065c565b34801561027b57600080fd5b50610258610662565b34801561029057600080fd5b50610258600480360360408110156102a757600080fd5b506001600160a01b038135811691602001351661072d565b3480156102cb57600080fd5b50610258600480360360208110156102e257600080fd5b50356107ba565b3480156102f557600080fd5b506102586004803603604081101561030c57600080fd5b506001600160a01b03813516906020013561086c565b34801561032e57600080fd5b506101c961098c565b34801561034357600080fd5b5061025861099b565b34801561035857600080fd5b5061037f6004803603602081101561036f57600080fd5b50356001600160a01b0316610a11565b604080519115158252519081900360200190f35b34801561039f57600080fd5b50610258600480360360a08110156103b657600080fd5b508035906020810135906001600160a01b036040820135811691606081013582169160809091013516610a26565b3480156103f057600080fd5b506101a26004803603606081101561040757600080fd5b508035906001600160a01b0360208201358116916040013516610a97565b34801561043157600080fd5b506102586004803603602081101561044857600080fd5b50356001600160a01b0316610aae565b6002805460408051602060018416156101000260001901909316849004601f810184900484028201840190925281815292918301828280156104db5780601f106104b0576101008083540402835291602001916104db565b820191906000526020600020905b8154815290600101906020018083116104be57829003601f168201915b505050505081565b7f3ad79a287bc781280a436df283c490150f8df078cbfa78807ed7784f1994401a81565b6005546001600160a01b031681565b60046020526000908152604090205460ff1681565b610533610bcf565b6001600160a01b031661054461098c565b6001600160a01b03161461059f576040805162461bcd60e51b815260206004820181905260248201527f4f776e61626c653a2043616c6c6572206973206e6f7420746865206f776e6572604482015290519081900360640190fd5b600081116105f4576040805162461bcd60e51b815260206004820152601e60248201527f59616b416461707465723a204e6f7468696e6720746f207265636f7665720000604482015290519081900360640190fd5b604051339082156108fc029083906000818181858888f19350505050158015610621573d6000803e3d6000fd5b506040805182815290516000917f8c1256b8896378cd5044f80c202f9772b9d77dc85c8a6eb51967210b09bfaa28919081900360200190a250565b60015481565b61066a610bcf565b6001600160a01b031661067b61098c565b6001600160a01b0316146106d6576040805162461bcd60e51b815260206004820181905260248201527f4f776e61626c653a2043616c6c6572206973206e6f7420746865206f776e6572604482015290519081900360640190fd5b600080546040516001600160a01b03909116907f8be0079c531659141344cd1fd0a4f28419497f9722a3daafe3b4186f6b6457e0908390a36000805473ffffffffffffffffffffffffffffffffffffffff19169055565b610735610bcf565b6001600160a01b031661074661098c565b6001600160a01b0316146107a1576040805162461bcd60e51b815260206004820181905260248201527f4f776e61626c653a2043616c6c6572206973206e6f7420746865206f776e6572604482015290519081900360640190fd5b6107b66001600160a01b038316826000610bd3565b5050565b6107c2610bcf565b6001600160a01b03166107d361098c565b6001600160a01b03161461082e576040805162461bcd60e51b815260206004820181905260248201527f4f776e61626c653a2043616c6c6572206973206e6f7420746865206f776e6572604482015290519081900360640190fd5b600181905560408051828152905130917ff43f23b7a28e6f8ce6843a21bd7b48bce778aa913b8c8cf459edf7d770e8d38a919081900360200190a250565b610874610bcf565b6001600160a01b031661088561098c565b6001600160a01b0316146108e0576040805162461bcd60e51b815260206004820181905260248201527f4f776e61626c653a2043616c6c6572206973206e6f7420746865206f776e6572604482015290519081900360640190fd5b60008111610935576040805162461bcd60e51b815260206004820152601e60248201527f59616b416461707465723a204e6f7468696e6720746f207265636f7665720000604482015290519081900360640190fd5b6109496001600160a01b0383163383610d08565b6040805182815290516001600160a01b038416917f8c1256b8896378cd5044f80c202f9772b9d77dc85c8a6eb51967210b09bfaa28919081900360200190a25050565b6000546001600160a01b031690565b6109a3610bcf565b6001600160a01b03166109b461098c565b6001600160a01b031614610a0f576040805162461bcd60e51b815260206004820181905260248201527f4f776e61626c653a2043616c6c6572206973206e6f7420746865206f776e6572604482015290519081900360640190fd5b565b60036020526000908152604090205460ff1681565b610a308386610d27565b610a3d8585858585610dcd565b816001600160a01b0316836001600160a01b03167fe2bdbc6b7225eb0a972ac943c485a6cc05f7c6811838bce8903f23200fb744fa8787604051808381526020018281526020019250505060405180910390a35050505050565b6000610aa4848484610ead565b90505b9392505050565b610ab6610bcf565b6001600160a01b0316610ac761098c565b6001600160a01b031614610b22576040805162461bcd60e51b815260206004820181905260248201527f4f776e61626c653a2043616c6c6572206973206e6f7420746865206f776e6572604482015290519081900360640190fd5b6001600160a01b038116610b675760405162461bcd60e51b81526004018080602001828103825260268152602001806112df6026913960400191505060405180910390fd5b600080546040516001600160a01b03808516939216917f8be0079c531659141344cd1fd0a4f28419497f9722a3daafe3b4186f6b6457e091a36000805473ffffffffffffffffffffffffffffffffffffffff19166001600160a01b0392909216919091179055565b3390565b801580610c5b5750604051636eb1769f60e11b81526001600160a01b0384169063dd62ed3e90610c0990309086906004016111bc565b60206040518083038186803b158015610c2157600080fd5b505afa158015610c35573d6000803e3d6000fd5b505050506040513d601f19601f82011682018060405250810190610c59919061116b565b155b610c805760405162461bcd60e51b8152600401610c7790611281565b60405180910390fd5b610d038363095ea7b360e01b8484604051602401610c9f9291906111d6565b60408051601f198184030181529190526020810180517bffffffffffffffffffffffffffffffffffffffffffffffffffffffff167fffffffff000000000000000000000000000000000000000000000000000000009093169290921790915261106b565b505050565b610d038363a9059cbb60e01b8484604051602401610c9f9291906111d6565b60055460408051636eb1769f60e11b81523060048201526001600160a01b039283166024820152905160009285169163dd62ed3e916044808301926020929190829003018186803b158015610d7b57600080fd5b505afa158015610d8f573d6000803e3d6000fd5b505050506040513d6020811015610da557600080fd5b5051905081811015610d0357600554610d03906001600160a01b038581169116600019610bd3565b6005546001600160a01b0384811660009081526004602081815260408084205488861685528185205482517f9169558600000000000000000000000000000000000000000000000000000000815260ff92831695810195909552166024840152604483018b9052606483018a905242608484015251939094169363916955869360a48084019492939192918390030190829087803b158015610e6e57600080fd5b505af1158015610e82573d6000803e3d6000fd5b505050506040513d6020811015610e9857600080fd5b50610ea69050828583611127565b5050505050565b6001600160a01b03821660009081526003602052604081205460ff161580610eee57506001600160a01b03821660009081526003602052604090205460ff16155b80610f0a5750816001600160a01b0316836001600160a01b0316145b80610f13575083155b80610f945750600560009054906101000a90046001600160a01b03166001600160a01b0316635c975abb6040518163ffffffff1660e01b815260040160206040518083038186803b158015610f6757600080fd5b505afa158015610f7b573d6000803e3d6000fd5b505050506040513d6020811015610f9157600080fd5b50515b15610fa157506000610aa7565b6005546001600160a01b038481166000908152600460208181526040808420548886168552938190205481517fa95b089f00000000000000000000000000000000000000000000000000000000815260ff958616948101949094529093166024830152604482018990529151929093169263a95b089f9260648083019392829003018186803b15801561103357600080fd5b505afa92505050801561105857506040513d602081101561105357600080fd5b505160015b61106457506000610aa7565b9050610aa7565b600080836001600160a01b0316836040516110869190611183565b6000604051808303816000865af19150503d80600081146110c3576040519150601f19603f3d011682016040523d82523d6000602084013e6110c8565b606091505b5091509150816110ea5760405162461bcd60e51b8152600401610c77906111ef565b8051156111215780806020019051810190611105919061114b565b6111215760405162461bcd60e51b8152600401610c7790611224565b50505050565b306001600160a01b03821614610d0357610d036001600160a01b0384168284610d08565b60006020828403121561115c578081fd5b81518015158114610aa7578182fd5b60006020828403121561117c578081fd5b5051919050565b60008251815b818110156111a35760208186018101518583015201611189565b818111156111b15782828501525b509190910192915050565b6001600160a01b0392831681529116602082015260400190565b6001600160a01b03929092168252602082015260400190565b6020808252818101527f5361666545524332303a206c6f772d6c6576656c2063616c6c206661696c6564604082015260600190565b6020808252602a908201527f5361666545524332303a204552433230206f7065726174696f6e20646964206e60408201527f6f74207375636365656400000000000000000000000000000000000000000000606082015260800190565b60208082526036908201527f5361666545524332303a20617070726f76652066726f6d206e6f6e2d7a65726f60408201527f20746f206e6f6e2d7a65726f20616c6c6f77616e63650000000000000000000060608201526080019056fe4f776e61626c653a204e6577206f776e657220697320746865207a65726f2061646472657373a26469706673582212203c61f04e4c5d6f7b6358f927a6d5dd0b7c049be15d07189f174fd3fe8a6e9b1464736f6c63430007060033",
  "devdoc": {
    "kind": "dev",
    "methods": {
      "owner()": {
        "details": "Returns the address of the current owner."
      },
      "recoverAVAX(uint256)": {
        "params": {
          "_amount": "amount"
        }
      },
      "recoverERC20(address,uint256)": {
        "params": {
          "_tokenAddress": "token address",
          "_tokenAmount": "amount to recover"
        }
      },
      "renounceOwnership()": {
        "details": "Leaves the contract without owner. It will not be possible to call `onlyOwner` functions anymore. Can only be called by the current owner. NOTE: Renouncing ownership will leave the contract without an owner, thereby removing any functionality that is only available to the owner."
      },
      "revokeAllowance(address,address)": {
        "params": {
          "_spender": "address",
          "_token": "address"
        }
      },
      "setAllowances()": {
        "details": "Should use modifier `onlyOwner` to avoid griefing"
      },
      "swap(uint256,uint256,address,address,address)": {
        "params": {
          "_amountIn": "input amount in starting token",
          "_amountOut": "amount out in ending token",
          "_fromToken": "ERC20 token being sold",
          "_to": "address where swapped funds should be sent to",
          "_toToken": "ERC20 token being bought"
        }
      },
      "transferOwnership(address)": {
        "details": "Transfers ownership of the contract to a new account (`newOwner`). Can only be called by the current owner."
      }
    },
    "version": 1
  },
  "userdoc": {
    "kind": "user",
    "methods": {
      "recoverAVAX(uint256)": {
        "notice": "Recover AVAX from contract"
      },
      "recoverERC20(address,uint256)": {
        "notice": "Recover ERC20 from contract"
      },
      "revokeAllowance(address,address)": {
        "notice": "Revoke token allowance"
      },
      "setAllowances()": {
        "notice": "Approve tokens for use in Strategy"
      },
      "swap(uint256,uint256,address,address,address)": {
        "notice": "Execute a swap from token to token assuming this contract already holds input tokensInteract through the router"
      }
    },
    "version": 1
  },
  "storageLayout": {
    "storage": [
      {
        "astId": 6598,
        "contract": "contracts/adapters/CurveLikeAdapter.sol:CurveLikeAdapter",
        "label": "_owner",
        "offset": 0,
        "slot": "0",
        "type": "t_address"
      },
      {
        "astId": 2304,
        "contract": "contracts/adapters/CurveLikeAdapter.sol:CurveLikeAdapter",
        "label": "swapGasEstimate",
        "offset": 0,
        "slot": "1",
        "type": "t_uint256"
      },
      {
        "astId": 2306,
        "contract": "contracts/adapters/CurveLikeAdapter.sol:CurveLikeAdapter",
        "label": "name",
        "offset": 0,
        "slot": "2",
        "type": "t_string_storage"
      },
      {
        "astId": 3285,
        "contract": "contracts/adapters/CurveLikeAdapter.sol:CurveLikeAdapter",
        "label": "isPoolToken",
        "offset": 0,
        "slot": "3",
        "type": "t_mapping(t_address,t_bool)"
      },
      {
        "astId": 3289,
        "contract": "contracts/adapters/CurveLikeAdapter.sol:CurveLikeAdapter",
        "label": "tokenIndex",
        "offset": 0,
        "slot": "4",
        "type": "t_mapping(t_address,t_uint8)"
      },
      {
        "astId": 3291,
        "contract": "contracts/adapters/CurveLikeAdapter.sol:CurveLikeAdapter",
        "label": "pool",
        "offset": 0,
        "slot": "5",
        "type": "t_address"
      }
    ],
    "types": {
      "t_address": {
        "encoding": "inplace",
        "label": "address",
        "numberOfBytes": "20"
      },
      "t_bool": {
        "encoding": "inplace",
        "label": "bool",
        "numberOfBytes": "1"
      },
      "t_mapping(t_address,t_bool)": {
        "encoding": "mapping",
        "key": "t_address",
        "label": "mapping(address => bool)",
        "numberOfBytes": "32",
        "value": "t_bool"
      },
      "t_mapping(t_address,t_uint8)": {
        "encoding": "mapping",
        "key": "t_address",
        "label": "mapping(address => uint8)",
        "numberOfBytes": "32",
        "value": "t_uint8"
      },
      "t_string_storage": {
        "encoding": "bytes",
        "label": "string",
        "numberOfBytes": "32"
      },
      "t_uint256": {
        "encoding": "inplace",
        "label": "uint256",
        "numberOfBytes": "32"
      },
      "t_uint8": {
        "encoding": "inplace",
        "label": "uint8",
        "numberOfBytes": "1"
      }
    }
  }
}